{
  "_format": "hh-sol-artifact-1",
  "contractName": "CarRental",
  "sourceName": "contracts/CarRental.sol",
  "abi": [
    {
      "inputs": [],
      "stateMutability": "nonpayable",
      "type": "constructor"
    },
    {
      "anonymous": false,
      "inputs": [
        {
          "components": [
            {
              "internalType": "string",
              "name": "userName",
              "type": "string"
            },
            {
              "internalType": "string",
              "name": "password",
              "type": "string"
            },
            {
              "internalType": "uint256",
              "name": "userID",
              "type": "uint256"
            },
            {
              "internalType": "address payable",
              "name": "userAddress",
              "type": "address"
            },
            {
              "internalType": "bool",
              "name": "isUserLoggedIn",
              "type": "bool"
            }
          ],
          "indexed": false,
          "internalType": "struct CarRental.User",
          "name": "user",
          "type": "tuple"
        }
      ],
      "name": "LoginDone",
      "type": "event"
    },
    {
      "anonymous": false,
      "inputs": [
        {
          "indexed": false,
          "internalType": "string",
          "name": "fail",
          "type": "string"
        }
      ],
      "name": "LoginFail",
      "type": "event"
    },
    {
      "anonymous": false,
      "inputs": [
        {
          "components": [
            {
              "internalType": "string",
              "name": "userName",
              "type": "string"
            },
            {
              "internalType": "string",
              "name": "password",
              "type": "string"
            },
            {
              "internalType": "uint256",
              "name": "userID",
              "type": "uint256"
            },
            {
              "internalType": "address payable",
              "name": "userAddress",
              "type": "address"
            },
            {
              "internalType": "bool",
              "name": "isUserLoggedIn",
              "type": "bool"
            }
          ],
          "indexed": false,
          "internalType": "struct CarRental.User",
          "name": "user",
          "type": "tuple"
        }
      ],
      "name": "accountCreated",
      "type": "event"
    },
    {
      "anonymous": false,
      "inputs": [
        {
          "indexed": true,
          "internalType": "uint256",
          "name": "carID",
          "type": "uint256"
        },
        {
          "components": [
            {
              "internalType": "bool",
              "name": "isAvailable",
              "type": "bool"
            },
            {
              "internalType": "address payable",
              "name": "carOwner",
              "type": "address"
            },
            {
              "internalType": "string",
              "name": "carLocation",
              "type": "string"
            },
            {
              "internalType": "uint256",
              "name": "carID",
              "type": "uint256"
            },
            {
              "internalType": "uint256",
              "name": "price",
              "type": "uint256"
            },
            {
              "internalType": "string",
              "name": "ownerName",
              "type": "string"
            }
          ],
          "indexed": false,
          "internalType": "struct CarRental.CarInfo",
          "name": "car",
          "type": "tuple"
        }
      ],
      "name": "carAdded",
      "type": "event"
    },
    {
      "anonymous": false,
      "inputs": [
        {
          "indexed": false,
          "internalType": "string",
          "name": "customerName",
          "type": "string"
        },
        {
          "indexed": false,
          "internalType": "uint256",
          "name": "customerAge",
          "type": "uint256"
        },
        {
          "indexed": false,
          "internalType": "uint256",
          "name": "licenseID",
          "type": "uint256"
        }
      ],
      "name": "carReturned",
      "type": "event"
    },
    {
      "anonymous": false,
      "inputs": [
        {
          "indexed": false,
          "internalType": "string",
          "name": "customerName",
          "type": "string"
        },
        {
          "indexed": false,
          "internalType": "uint256",
          "name": "customerAge",
          "type": "uint256"
        },
        {
          "indexed": false,
          "internalType": "uint256",
          "name": "licenseID",
          "type": "uint256"
        }
      ],
      "name": "rentalCanceled",
      "type": "event"
    },
    {
      "anonymous": false,
      "inputs": [
        {
          "indexed": false,
          "internalType": "string",
          "name": "customerName",
          "type": "string"
        },
        {
          "indexed": false,
          "internalType": "uint256",
          "name": "customerAge",
          "type": "uint256"
        },
        {
          "indexed": false,
          "internalType": "uint256",
          "name": "licenseID",
          "type": "uint256"
        }
      ],
      "name": "rentalConfirmed",
      "type": "event"
    },
    {
      "anonymous": false,
      "inputs": [
        {
          "indexed": false,
          "internalType": "string",
          "name": "customerName",
          "type": "string"
        },
        {
          "indexed": false,
          "internalType": "uint256",
          "name": "customerAge",
          "type": "uint256"
        },
        {
          "indexed": false,
          "internalType": "uint256",
          "name": "licenseID",
          "type": "uint256"
        },
        {
          "indexed": false,
          "internalType": "uint256",
          "name": "carID",
          "type": "uint256"
        }
      ],
      "name": "rentalPlaced",
      "type": "event"
    },
    {
      "inputs": [
        {
          "internalType": "address",
          "name": "_address",
          "type": "address"
        },
        {
          "internalType": "string",
          "name": "_password",
          "type": "string"
        }
      ],
      "name": "Login",
      "outputs": [
        {
          "internalType": "bool",
          "name": "",
          "type": "bool"
        }
      ],
      "stateMutability": "nonpayable",
      "type": "function"
    },
    {
      "inputs": [
        {
          "internalType": "address payable",
          "name": "_Account",
          "type": "address"
        },
        {
          "internalType": "string",
          "name": "_userName",
          "type": "string"
        },
        {
          "internalType": "string",
          "name": "_password",
          "type": "string"
        }
      ],
      "name": "SignUp",
      "outputs": [
        {
          "internalType": "bool",
          "name": "",
          "type": "bool"
        }
      ],
      "stateMutability": "nonpayable",
      "type": "function"
    },
    {
      "inputs": [
        {
          "internalType": "string",
          "name": "_carOwner",
          "type": "string"
        },
        {
          "internalType": "string",
          "name": "_carLocation",
          "type": "string"
        }
      ],
      "name": "addCar",
      "outputs": [
        {
          "internalType": "bool",
          "name": "",
          "type": "bool"
        }
      ],
      "stateMutability": "nonpayable",
      "type": "function"
    },
    {
      "inputs": [
        {
          "internalType": "address",
          "name": "",
          "type": "address"
        }
      ],
      "name": "balances",
      "outputs": [
        {
          "internalType": "uint256",
          "name": "",
          "type": "uint256"
        }
      ],
      "stateMutability": "view",
      "type": "function"
    },
    {
      "inputs": [],
      "name": "cancelRental",
      "outputs": [],
      "stateMutability": "payable",
      "type": "function"
    },
    {
      "inputs": [
        {
          "internalType": "uint256",
          "name": "",
          "type": "uint256"
        }
      ],
      "name": "cars",
      "outputs": [
        {
          "internalType": "bool",
          "name": "isAvailable",
          "type": "bool"
        },
        {
          "internalType": "address payable",
          "name": "carOwner",
          "type": "address"
        },
        {
          "internalType": "string",
          "name": "carLocation",
          "type": "string"
        },
        {
          "internalType": "uint256",
          "name": "carID",
          "type": "uint256"
        },
        {
          "internalType": "uint256",
          "name": "price",
          "type": "uint256"
        },
        {
          "internalType": "string",
          "name": "ownerName",
          "type": "string"
        }
      ],
      "stateMutability": "view",
      "type": "function"
    },
    {
      "inputs": [],
      "name": "confirmRental",
      "outputs": [],
      "stateMutability": "nonpayable",
      "type": "function"
    },
    {
      "inputs": [
        {
          "internalType": "string",
          "name": "_customerName",
          "type": "string"
        },
        {
          "internalType": "uint256",
          "name": "_age",
          "type": "uint256"
        },
        {
          "internalType": "uint256",
          "name": "_licenseID",
          "type": "uint256"
        },
        {
          "internalType": "uint256",
          "name": "_carID",
          "type": "uint256"
        }
      ],
      "name": "createRental",
      "outputs": [],
      "stateMutability": "payable",
      "type": "function"
    },
    {
      "inputs": [],
      "name": "getBalanceofOwner",
      "outputs": [
        {
          "internalType": "uint256",
          "name": "",
          "type": "uint256"
        }
      ],
      "stateMutability": "view",
      "type": "function"
    },
    {
      "inputs": [],
      "name": "getBalanceofSC",
      "outputs": [
        {
          "internalType": "uint256",
          "name": "",
          "type": "uint256"
        }
      ],
      "stateMutability": "view",
      "type": "function"
    },
    {
      "inputs": [],
      "name": "getPostedCars",
      "outputs": [
        {
          "components": [
            {
              "internalType": "bool",
              "name": "isAvailable",
              "type": "bool"
            },
            {
              "internalType": "address payable",
              "name": "carOwner",
              "type": "address"
            },
            {
              "internalType": "string",
              "name": "carLocation",
              "type": "string"
            },
            {
              "internalType": "uint256",
              "name": "carID",
              "type": "uint256"
            },
            {
              "internalType": "uint256",
              "name": "price",
              "type": "uint256"
            },
            {
              "internalType": "string",
              "name": "ownerName",
              "type": "string"
            }
          ],
          "internalType": "struct CarRental.CarInfo",
          "name": "",
          "type": "tuple"
        },
        {
          "internalType": "string",
          "name": "",
          "type": "string"
        }
      ],
      "stateMutability": "pure",
      "type": "function"
    },
    {
      "inputs": [],
      "name": "getUserName",
      "outputs": [
        {
          "internalType": "bool",
          "name": "",
          "type": "bool"
        },
        {
          "internalType": "string",
          "name": "",
          "type": "string"
        },
        {
          "internalType": "address",
          "name": "",
          "type": "address"
        }
      ],
      "stateMutability": "view",
      "type": "function"
    },
    {
      "inputs": [
        {
          "internalType": "uint256",
          "name": "_carID",
          "type": "uint256"
        }
      ],
      "name": "getcarAvailability",
      "outputs": [
        {
          "internalType": "bool",
          "name": "",
          "type": "bool"
        }
      ],
      "stateMutability": "view",
      "type": "function"
    },
    {
      "inputs": [
        {
          "internalType": "uint256",
          "name": "_carID",
          "type": "uint256"
        }
      ],
      "name": "getcarID",
      "outputs": [
        {
          "internalType": "uint256",
          "name": "",
          "type": "uint256"
        }
      ],
      "stateMutability": "view",
      "type": "function"
    },
    {
      "inputs": [
        {
          "internalType": "uint256",
          "name": "_carID",
          "type": "uint256"
        }
      ],
      "name": "getcarLocation",
      "outputs": [
        {
          "internalType": "string",
          "name": "",
          "type": "string"
        }
      ],
      "stateMutability": "view",
      "type": "function"
    },
    {
      "inputs": [],
      "name": "getcustomerAge",
      "outputs": [
        {
          "internalType": "uint256",
          "name": "",
          "type": "uint256"
        }
      ],
      "stateMutability": "view",
      "type": "function"
    },
    {
      "inputs": [],
      "name": "getcustomerName",
      "outputs": [
        {
          "internalType": "string",
          "name": "",
          "type": "string"
        }
      ],
      "stateMutability": "view",
      "type": "function"
    },
    {
      "inputs": [],
      "name": "getlicenseID",
      "outputs": [
        {
          "internalType": "uint256",
          "name": "",
          "type": "uint256"
        }
      ],
      "stateMutability": "view",
      "type": "function"
    },
    {
      "inputs": [],
      "name": "getorderConfirmation",
      "outputs": [
        {
          "internalType": "bool",
          "name": "",
          "type": "bool"
        }
      ],
      "stateMutability": "view",
      "type": "function"
    },
    {
      "inputs": [],
      "name": "getorderReturn",
      "outputs": [
        {
          "internalType": "bool",
          "name": "",
          "type": "bool"
        }
      ],
      "stateMutability": "view",
      "type": "function"
    },
    {
      "inputs": [],
      "name": "getorderValidity",
      "outputs": [
        {
          "internalType": "bool",
          "name": "",
          "type": "bool"
        }
      ],
      "stateMutability": "view",
      "type": "function"
    },
    {
      "inputs": [
        {
          "internalType": "uint256",
          "name": "_carID",
          "type": "uint256"
        }
      ],
      "name": "getownerName",
      "outputs": [
        {
          "internalType": "string",
          "name": "",
          "type": "string"
        }
      ],
      "stateMutability": "view",
      "type": "function"
    },
    {
      "inputs": [
        {
          "internalType": "address",
          "name": "_address",
          "type": "address"
        }
      ],
      "name": "logout",
      "outputs": [],
      "stateMutability": "nonpayable",
      "type": "function"
    },
    {
      "inputs": [],
      "name": "price",
      "outputs": [
        {
          "internalType": "uint256",
          "name": "",
          "type": "uint256"
        }
      ],
      "stateMutability": "view",
      "type": "function"
    },
    {
      "inputs": [
        {
          "internalType": "address",
          "name": "",
          "type": "address"
        }
      ],
      "name": "rentals",
      "outputs": [
        {
          "internalType": "bool",
          "name": "isValidRental",
          "type": "bool"
        },
        {
          "internalType": "string",
          "name": "customerName",
          "type": "string"
        },
        {
          "internalType": "uint256",
          "name": "customerAge",
          "type": "uint256"
        },
        {
          "internalType": "uint256",
          "name": "licenseID",
          "type": "uint256"
        },
        {
          "internalType": "uint256",
          "name": "rentDuration",
          "type": "uint256"
        },
        {
          "internalType": "bool",
          "name": "hasReturned",
          "type": "bool"
        },
        {
          "internalType": "bool",
          "name": "hasConfirmed",
          "type": "bool"
        }
      ],
      "stateMutability": "view",
      "type": "function"
    },
    {
      "inputs": [
        {
          "internalType": "uint256",
          "name": "_carID",
          "type": "uint256"
        }
      ],
      "name": "returnCar",
      "outputs": [],
      "stateMutability": "nonpayable",
      "type": "function"
    },
    {
      "inputs": [],
      "name": "totalCarNum",
      "outputs": [
        {
          "internalType": "uint256",
          "name": "",
          "type": "uint256"
        }
      ],
      "stateMutability": "view",
      "type": "function"
    }
  ],
  "bytecode": "0x60806040526000600255600060035534801561001a57600080fd5b50336000806101000a81548173ffffffffffffffffffffffffffffffffffffffff021916908373ffffffffffffffffffffffffffffffffffffffff16021790555030600160006101000a81548173ffffffffffffffffffffffffffffffffffffffff021916908373ffffffffffffffffffffffffffffffffffffffff160217905550613c9d806100ab6000396000f3fe60806040526004361061019c5760003560e01c806364ea9ef3116100ec578063a4b4e42b1161008a578063de320add11610064578063de320add146105cf578063e7411f83146105fa578063f183d37714610637578063f7746e36146106625761019c565b8063a4b4e42b1461052c578063ba0235db14610569578063cc51f9b9146105a65761019c565b80636f2b2c70116100c65780636f2b2c701461046d5780638f1395e51461049857806395febcd3146104d5578063a035b1fe146105015761019c565b806364ea9ef3146103c25780636ba85eb4146103ed5780636bdd7e9a146104305761019c565b806321b3e8981161015957806330ff2ed41161013357806330ff2ed4146103255780633a15add0146103625780634fb0a98c1461038d57806364d3d136146103b85761019c565b806321b3e898146102a157806327e235e3146102bd5780632f5edecd146102fa5761019c565b8063075569a3146101a15780630bccc291146101cc57806312958f1c146101e35780631436d16e1461021057806317f956e01461024d5780631af6c8cc14610276575b600080fd5b3480156101ad57600080fd5b506101b66106a4565b6040516101c391906136f7565b60405180910390f35b3480156101d857600080fd5b506101e16106e5565b005b3480156101ef57600080fd5b506101f861097d565b6040516102079392919061337c565b60405180910390f35b34801561021c57600080fd5b5061023760048036038101906102329190612c98565b610a5f565b60405161024491906132f2565b60405180910390f35b34801561025957600080fd5b50610274600480360381019061026f9190612e52565b610d95565b005b34801561028257600080fd5b5061028b611155565b60405161029891906132f2565b60405180910390f35b6102bb60048036038101906102b69190612dd7565b6111cd565b005b3480156102c957600080fd5b506102e460048036038101906102df9190612c6f565b6119c4565b6040516102f191906136f7565b60405180910390f35b34801561030657600080fd5b5061030f6119dc565b60405161031c9190613430565b60405180910390f35b34801561033157600080fd5b5061034c60048036038101906103479190612e52565b611acf565b60405161035991906136f7565b60405180910390f35b34801561036e57600080fd5b50610377611aef565b60405161038491906132f2565b60405180910390f35b34801561039957600080fd5b506103a2611b67565b6040516103af91906132f2565b60405180910390f35b6103c0611bdf565b005b3480156103ce57600080fd5b506103d7612019565b6040516103e491906136f7565b60405180910390f35b3480156103f957600080fd5b50610414600480360381019061040f9190612c6f565b61201f565b60405161042797969594939291906133ba565b60405180910390f35b34801561043c57600080fd5b5061045760048036038101906104529190612d6b565b612110565b60405161046491906132f2565b60405180910390f35b34801561047957600080fd5b506104826122c4565b60405161048f91906136f7565b60405180910390f35b3480156104a457600080fd5b506104bf60048036038101906104ba9190612e52565b61232c565b6040516104cc91906132f2565b60405180910390f35b3480156104e157600080fd5b506104ea612359565b6040516104f892919061369e565b60405180910390f35b34801561050d57600080fd5b506105166123ab565b60405161052391906136f7565b60405180910390f35b34801561053857600080fd5b50610553600480360381019061054e9190612d17565b6123b7565b60405161056091906132f2565b60405180910390f35b34801561057557600080fd5b50610590600480360381019061058b9190612e52565b612693565b60405161059d9190613430565b60405180910390f35b3480156105b257600080fd5b506105cd60048036038101906105c89190612c6f565b61273b565b005b3480156105db57600080fd5b506105e4612799565b6040516105f191906136f7565b60405180910390f35b34801561060657600080fd5b50610621600480360381019061061c9190612e52565b612804565b60405161062e9190613430565b60405180910390f35b34801561064357600080fd5b5061064c6128ac565b60405161065991906136f7565b60405180910390f35b34801561066e57600080fd5b5061068960048036038101906106849190612e52565b612917565b60405161069b9695949392919061330d565b60405180910390f35b6000600160009054906101000a900473ffffffffffffffffffffffffffffffffffffffff1673ffffffffffffffffffffffffffffffffffffffff1631905090565b60011515600560008060009054906101000a900473ffffffffffffffffffffffffffffffffffffffff1673ffffffffffffffffffffffffffffffffffffffff1673ffffffffffffffffffffffffffffffffffffffff16815260200190815260200160002060000160009054906101000a900460ff1615151461079c576040517f08c379a00000000000000000000000000000000000000000000000000000000081526004016107939061365c565b60405180910390fd5b6001600560008060009054906101000a900473ffffffffffffffffffffffffffffffffffffffff1673ffffffffffffffffffffffffffffffffffffffff1673ffffffffffffffffffffffffffffffffffffffff16815260200190815260200160002060050160016101000a81548160ff0219169083151502179055507fed78816087eca6df0f765f0aca46ab87a736468a8764ef88ed0b41c4adaff949600560008060009054906101000a900473ffffffffffffffffffffffffffffffffffffffff1673ffffffffffffffffffffffffffffffffffffffff1673ffffffffffffffffffffffffffffffffffffffff168152602001908152602001600020600101600560008060009054906101000a900473ffffffffffffffffffffffffffffffffffffffff1673ffffffffffffffffffffffffffffffffffffffff1673ffffffffffffffffffffffffffffffffffffffff16815260200190815260200160002060020154600560008060009054906101000a900473ffffffffffffffffffffffffffffffffffffffff1673ffffffffffffffffffffffffffffffffffffffff1673ffffffffffffffffffffffffffffffffffffffff1681526020019081526020016000206003015460405161097393929190613452565b60405180910390a1565b6000606060006001600760003373ffffffffffffffffffffffffffffffffffffffff1673ffffffffffffffffffffffffffffffffffffffff168152602001908152602001600020600001338180546109d490613851565b80601f0160208091040260200160405190810160405280929190818152602001828054610a0090613851565b8015610a4d5780601f10610a2257610100808354040283529160200191610a4d565b820191906000526020600020905b815481529060010190602001808311610a3057829003601f168201915b50505050509150925092509250909192565b60008073ffffffffffffffffffffffffffffffffffffffff168473ffffffffffffffffffffffffffffffffffffffff161415610ad0576040517f08c379a0000000000000000000000000000000000000000000000000000000008152600401610ac7906134fc565b60405180910390fd5b6000600760008673ffffffffffffffffffffffffffffffffffffffff1673ffffffffffffffffffffffffffffffffffffffff1681526020019081526020016000206002015414610b55576040517f08c379a0000000000000000000000000000000000000000000000000000000008152600401610b4c9061361c565b60405180910390fd5b6000835111610b99576040517f08c379a0000000000000000000000000000000000000000000000000000000008152600401610b909061351c565b60405180910390fd5b6000825111610bdd576040517f08c379a0000000000000000000000000000000000000000000000000000000008152600401610bd49061353c565b60405180910390fd5b610be5612a90565b60036000815480929190610bf8906138b4565b919050555060035481604001818152505084816060019073ffffffffffffffffffffffffffffffffffffffff16908173ffffffffffffffffffffffffffffffffffffffff1681525050838160000181905250828160200181905250600081608001901515908115158152505080600760008773ffffffffffffffffffffffffffffffffffffffff1673ffffffffffffffffffffffffffffffffffffffff1681526020019081526020016000206000820151816000019080519060200190610cc0929190612ad7565b506020820151816001019080519060200190610cdd929190612ad7565b506040820151816002015560608201518160030160006101000a81548173ffffffffffffffffffffffffffffffffffffffff021916908373ffffffffffffffffffffffffffffffffffffffff16021790555060808201518160030160146101000a81548160ff0219169083151502179055509050507f2c988b5a7cf9ffacc161786f216866af35142b37c1dc5484c1b961f166e2b88281604051610d8191906136d5565b60405180910390a160019150509392505050565b60011515600560008060009054906101000a900473ffffffffffffffffffffffffffffffffffffffff1673ffffffffffffffffffffffffffffffffffffffff1673ffffffffffffffffffffffffffffffffffffffff16815260200190815260200160002060000160009054906101000a900460ff16151514610e4c576040517f08c379a0000000000000000000000000000000000000000000000000000000008152600401610e439061365c565b60405180910390fd5b6000600560008060009054906101000a900473ffffffffffffffffffffffffffffffffffffffff1673ffffffffffffffffffffffffffffffffffffffff1673ffffffffffffffffffffffffffffffffffffffff16815260200190815260200160002060050160016101000a81548160ff0219169083151502179055506000600560008060009054906101000a900473ffffffffffffffffffffffffffffffffffffffff1673ffffffffffffffffffffffffffffffffffffffff1673ffffffffffffffffffffffffffffffffffffffff16815260200190815260200160002060000160006101000a81548160ff0219169083151502179055506001600560008060009054906101000a900473ffffffffffffffffffffffffffffffffffffffff1673ffffffffffffffffffffffffffffffffffffffff1673ffffffffffffffffffffffffffffffffffffffff16815260200190815260200160002060050160006101000a81548160ff02191690831515021790555060016006600083815260200190815260200160002060000160006101000a81548160ff0219169083151502179055507ff11af35f6391ead7879040e53c10181c087a76737f0f8a4947097027f540b8bb600560008060009054906101000a900473ffffffffffffffffffffffffffffffffffffffff1673ffffffffffffffffffffffffffffffffffffffff1673ffffffffffffffffffffffffffffffffffffffff168152602001908152602001600020600101600560008060009054906101000a900473ffffffffffffffffffffffffffffffffffffffff1673ffffffffffffffffffffffffffffffffffffffff1673ffffffffffffffffffffffffffffffffffffffff16815260200190815260200160002060020154600560008060009054906101000a900473ffffffffffffffffffffffffffffffffffffffff1673ffffffffffffffffffffffffffffffffffffffff1673ffffffffffffffffffffffffffffffffffffffff1681526020019081526020016000206003015460405161114a93929190613452565b60405180910390a150565b6000600560008060009054906101000a900473ffffffffffffffffffffffffffffffffffffffff1673ffffffffffffffffffffffffffffffffffffffff1673ffffffffffffffffffffffffffffffffffffffff16815260200190815260200160002060050160009054906101000a900460ff16905090565b60001515600560008060009054906101000a900473ffffffffffffffffffffffffffffffffffffffff1673ffffffffffffffffffffffffffffffffffffffff1673ffffffffffffffffffffffffffffffffffffffff16815260200190815260200160002060000160009054906101000a900460ff16151514611284576040517f08c379a000000000000000000000000000000000000000000000000000000000815260040161127b9061359c565b60405180910390fd5b67016345785d8a00003410156112cf576040517f08c379a00000000000000000000000000000000000000000000000000000000081526004016112c6906134dc565b60405180910390fd5b838383600083511180156112e35750600082115b80156112ef5750600081115b61132e576040517f08c379a0000000000000000000000000000000000000000000000000000000008152600401611325906135dc565b60405180910390fd5b6012821015611372576040517f08c379a00000000000000000000000000000000000000000000000000000000081526004016113699061363c565b60405180910390fd5b6000600660008681526020019081526020016000206040518060c00160405290816000820160009054906101000a900460ff161515151581526020016000820160019054906101000a900473ffffffffffffffffffffffffffffffffffffffff1673ffffffffffffffffffffffffffffffffffffffff1673ffffffffffffffffffffffffffffffffffffffff16815260200160018201805461141390613851565b80601f016020809104026020016040519081016040528092919081815260200182805461143f90613851565b801561148c5780601f106114615761010080835404028352916020019161148c565b820191906000526020600020905b81548152906001019060200180831161146f57829003601f168201915b5050505050815260200160028201548152602001600382015481526020016004820180546114b990613851565b80601f01602080910402602001604051908101604052809291908181526020018280546114e590613851565b80156115325780601f1061150757610100808354040283529160200191611532565b820191906000526020600020905b81548152906001019060200180831161151557829003601f168201915b5050505050815250509050600115158160000151151514611588576040517f08c379a000000000000000000000000000000000000000000000000000000000815260040161157f9061355c565b60405180910390fd5b6001600560008060009054906101000a900473ffffffffffffffffffffffffffffffffffffffff1673ffffffffffffffffffffffffffffffffffffffff1673ffffffffffffffffffffffffffffffffffffffff16815260200190815260200160002060000160006101000a81548160ff02191690831515021790555087600560008060009054906101000a900473ffffffffffffffffffffffffffffffffffffffff1673ffffffffffffffffffffffffffffffffffffffff1673ffffffffffffffffffffffffffffffffffffffff168152602001908152602001600020600101908051906020019061167b929190612ad7565b5086600560008060009054906101000a900473ffffffffffffffffffffffffffffffffffffffff1673ffffffffffffffffffffffffffffffffffffffff1673ffffffffffffffffffffffffffffffffffffffff1681526020019081526020016000206002018190555085600560008060009054906101000a900473ffffffffffffffffffffffffffffffffffffffff1673ffffffffffffffffffffffffffffffffffffffff1673ffffffffffffffffffffffffffffffffffffffff168152602001908152602001600020600301819055506000600560008060009054906101000a900473ffffffffffffffffffffffffffffffffffffffff1673ffffffffffffffffffffffffffffffffffffffff1673ffffffffffffffffffffffffffffffffffffffff16815260200190815260200160002060050160016101000a81548160ff0219169083151502179055506000600560008060009054906101000a900473ffffffffffffffffffffffffffffffffffffffff1673ffffffffffffffffffffffffffffffffffffffff1673ffffffffffffffffffffffffffffffffffffffff16815260200190815260200160002060050160006101000a81548160ff02191690831515021790555060008160000190151590811515815250507f25927a58d730df3be0b68622ecf036a86a34b53d452a9f851bc6b69165c468a2600560008060009054906101000a900473ffffffffffffffffffffffffffffffffffffffff1673ffffffffffffffffffffffffffffffffffffffff1673ffffffffffffffffffffffffffffffffffffffff168152602001908152602001600020600101600560008060009054906101000a900473ffffffffffffffffffffffffffffffffffffffff1673ffffffffffffffffffffffffffffffffffffffff1673ffffffffffffffffffffffffffffffffffffffff16815260200190815260200160002060020154600560008060009054906101000a900473ffffffffffffffffffffffffffffffffffffffff1673ffffffffffffffffffffffffffffffffffffffff1673ffffffffffffffffffffffffffffffffffffffff16815260200190815260200160002060030154886040516119b29493929190613490565b60405180910390a15050505050505050565b60046020528060005260406000206000915090505481565b6060600560008060009054906101000a900473ffffffffffffffffffffffffffffffffffffffff1673ffffffffffffffffffffffffffffffffffffffff1673ffffffffffffffffffffffffffffffffffffffff1681526020019081526020016000206001018054611a4c90613851565b80601f0160208091040260200160405190810160405280929190818152602001828054611a7890613851565b8015611ac55780601f10611a9a57610100808354040283529160200191611ac5565b820191906000526020600020905b815481529060010190602001808311611aa857829003601f168201915b5050505050905090565b600060066000838152602001908152602001600020600201549050919050565b6000600560008060009054906101000a900473ffffffffffffffffffffffffffffffffffffffff1673ffffffffffffffffffffffffffffffffffffffff1673ffffffffffffffffffffffffffffffffffffffff16815260200190815260200160002060050160019054906101000a900460ff16905090565b6000600560008060009054906101000a900473ffffffffffffffffffffffffffffffffffffffff1673ffffffffffffffffffffffffffffffffffffffff1673ffffffffffffffffffffffffffffffffffffffff16815260200190815260200160002060000160009054906101000a900460ff16905090565b60011515600560008060009054906101000a900473ffffffffffffffffffffffffffffffffffffffff1673ffffffffffffffffffffffffffffffffffffffff1673ffffffffffffffffffffffffffffffffffffffff16815260200190815260200160002060000160009054906101000a900460ff16151514611c96576040517f08c379a0000000000000000000000000000000000000000000000000000000008152600401611c8d9061365c565b60405180910390fd5b60001515600560008060009054906101000a900473ffffffffffffffffffffffffffffffffffffffff1673ffffffffffffffffffffffffffffffffffffffff1673ffffffffffffffffffffffffffffffffffffffff16815260200190815260200160002060050160019054906101000a900460ff16151514611d4d576040517f08c379a0000000000000000000000000000000000000000000000000000000008152600401611d44906135fc565b60405180910390fd5b6000600560008060009054906101000a900473ffffffffffffffffffffffffffffffffffffffff1673ffffffffffffffffffffffffffffffffffffffff1673ffffffffffffffffffffffffffffffffffffffff16815260200190815260200160002060050160016101000a81548160ff0219169083151502179055506000600560008060009054906101000a900473ffffffffffffffffffffffffffffffffffffffff1673ffffffffffffffffffffffffffffffffffffffff1673ffffffffffffffffffffffffffffffffffffffff16815260200190815260200160002060000160006101000a81548160ff02191690831515021790555060008054906101000a900473ffffffffffffffffffffffffffffffffffffffff1673ffffffffffffffffffffffffffffffffffffffff166108fc67016345785d8a00009081150290604051600060405180830381858888f19350505050158015611eb3573d6000803e3d6000fd5b507f558f292960addceeabcd96661a332929684e0344c1c679492d49bb64498c6a84600560008060009054906101000a900473ffffffffffffffffffffffffffffffffffffffff1673ffffffffffffffffffffffffffffffffffffffff1673ffffffffffffffffffffffffffffffffffffffff168152602001908152602001600020600101600560008060009054906101000a900473ffffffffffffffffffffffffffffffffffffffff1673ffffffffffffffffffffffffffffffffffffffff1673ffffffffffffffffffffffffffffffffffffffff16815260200190815260200160002060020154600560008060009054906101000a900473ffffffffffffffffffffffffffffffffffffffff1673ffffffffffffffffffffffffffffffffffffffff1673ffffffffffffffffffffffffffffffffffffffff1681526020019081526020016000206003015460405161200f93929190613452565b60405180910390a1565b60025481565b60056020528060005260406000206000915090508060000160009054906101000a900460ff169080600101805461205590613851565b80601f016020809104026020016040519081016040528092919081815260200182805461208190613851565b80156120ce5780601f106120a3576101008083540402835291602001916120ce565b820191906000526020600020905b8154815290600101906020018083116120b157829003601f168201915b5050505050908060020154908060030154908060040154908060050160009054906101000a900460ff16908060050160019054906101000a900460ff16905087565b6000808351118015612123575060008251115b612162576040517f08c379a0000000000000000000000000000000000000000000000000000000008152600401612159906135bc565b60405180910390fd5b61216a612b5d565b6002600081548092919061217d906138b4565b9190505550838160a0018190525082816040018190525060025481606001818152505060018160000190151590811515815250508060066000600254815260200190815260200160002060008201518160000160006101000a81548160ff02191690831515021790555060208201518160000160016101000a81548173ffffffffffffffffffffffffffffffffffffffff021916908373ffffffffffffffffffffffffffffffffffffffff160217905550604082015181600101908051906020019061224a929190612ad7565b50606082015181600201556080820151816003015560a082015181600401908051906020019061227b929190612ad7565b509050506002547f99ad11dbd2d1f7b42ddfc1fbc5a62160d8bc3b2225fe94f143f8d57249a1a406826040516122b1919061367c565b60405180910390a2600191505092915050565b6000600460008060009054906101000a900473ffffffffffffffffffffffffffffffffffffffff1673ffffffffffffffffffffffffffffffffffffffff1673ffffffffffffffffffffffffffffffffffffffff16815260200190815260200160002054905090565b60006006600083815260200190815260200160002060000160009054906101000a900460ff169050919050565b612361612b5d565b606061236b612b5d565b806040518060400160405280601b81526020017f47657420706f737465642063617220696e666f726d6174696f6e21000000000081525092509250509091565b67016345785d8a000081565b600080600760008573ffffffffffffffffffffffffffffffffffffffff1673ffffffffffffffffffffffffffffffffffffffff1681526020019081526020016000206040518060a001604052908160008201805461241490613851565b80601f016020809104026020016040519081016040528092919081815260200182805461244090613851565b801561248d5780601f106124625761010080835404028352916020019161248d565b820191906000526020600020905b81548152906001019060200180831161247057829003601f168201915b505050505081526020016001820180546124a690613851565b80601f01602080910402602001604051908101604052809291908181526020018280546124d290613851565b801561251f5780601f106124f45761010080835404028352916020019161251f565b820191906000526020600020905b81548152906001019060200180831161250257829003601f168201915b50505050508152602001600282015481526020016003820160009054906101000a900473ffffffffffffffffffffffffffffffffffffffff1673ffffffffffffffffffffffffffffffffffffffff1673ffffffffffffffffffffffffffffffffffffffff1681526020016003820160149054906101000a900460ff1615151515815250509050826040516020016125b691906132db565b6040516020818303038152906040528051906020012081602001516040516020016125e191906132db565b6040516020818303038152906040528051906020012014156126525760018160800190151590811515815250507fbdd5bb70264ff2c0cb7e174074895e522aa9d53f919fb486c17c158142a96e098160405161263d91906136d5565b60405180910390a1806080015191505061268d565b7f4c74530a3ef466183b718601f9ad1f7a0c8ec56463a9e68efef55c81e7e4141f60405161267f9061357c565b60405180910390a160009150505b92915050565b60606006600083815260200190815260200160002060010180546126b690613851565b80601f01602080910402602001604051908101604052809291908181526020018280546126e290613851565b801561272f5780601f106127045761010080835404028352916020019161272f565b820191906000526020600020905b81548152906001019060200180831161271257829003601f168201915b50505050509050919050565b6000600760008373ffffffffffffffffffffffffffffffffffffffff1673ffffffffffffffffffffffffffffffffffffffff16815260200190815260200160002060030160146101000a81548160ff02191690831515021790555050565b6000600560008060009054906101000a900473ffffffffffffffffffffffffffffffffffffffff1673ffffffffffffffffffffffffffffffffffffffff1673ffffffffffffffffffffffffffffffffffffffff16815260200190815260200160002060020154905090565b606060066000838152602001908152602001600020600401805461282790613851565b80601f016020809104026020016040519081016040528092919081815260200182805461285390613851565b80156128a05780601f10612875576101008083540402835291602001916128a0565b820191906000526020600020905b81548152906001019060200180831161288357829003601f168201915b50505050509050919050565b6000600560008060009054906101000a900473ffffffffffffffffffffffffffffffffffffffff1673ffffffffffffffffffffffffffffffffffffffff1673ffffffffffffffffffffffffffffffffffffffff16815260200190815260200160002060030154905090565b60066020528060005260406000206000915090508060000160009054906101000a900460ff16908060000160019054906101000a900473ffffffffffffffffffffffffffffffffffffffff169080600101805461297390613851565b80601f016020809104026020016040519081016040528092919081815260200182805461299f90613851565b80156129ec5780601f106129c1576101008083540402835291602001916129ec565b820191906000526020600020905b8154815290600101906020018083116129cf57829003601f168201915b505050505090806002015490806003015490806004018054612a0d90613851565b80601f0160208091040260200160405190810160405280929190818152602001828054612a3990613851565b8015612a865780601f10612a5b57610100808354040283529160200191612a86565b820191906000526020600020905b815481529060010190602001808311612a6957829003601f168201915b5050505050905086565b6040518060a00160405280606081526020016060815260200160008152602001600073ffffffffffffffffffffffffffffffffffffffff1681526020016000151581525090565b828054612ae390613851565b90600052602060002090601f016020900481019282612b055760008555612b4c565b82601f10612b1e57805160ff1916838001178555612b4c565b82800160010185558215612b4c579182015b82811115612b4b578251825591602001919060010190612b30565b5b509050612b599190612bab565b5090565b6040518060c00160405280600015158152602001600073ffffffffffffffffffffffffffffffffffffffff168152602001606081526020016000815260200160008152602001606081525090565b5b80821115612bc4576000816000905550600101612bac565b5090565b6000612bdb612bd684613737565b613712565b905082815260208101848484011115612bf357600080fd5b612bfe84828561380f565b509392505050565b600081359050612c1581613c22565b92915050565b600081359050612c2a81613c39565b92915050565b600082601f830112612c4157600080fd5b8135612c51848260208601612bc8565b91505092915050565b600081359050612c6981613c50565b92915050565b600060208284031215612c8157600080fd5b6000612c8f84828501612c06565b91505092915050565b600080600060608486031215612cad57600080fd5b6000612cbb86828701612c1b565b935050602084013567ffffffffffffffff811115612cd857600080fd5b612ce486828701612c30565b925050604084013567ffffffffffffffff811115612d0157600080fd5b612d0d86828701612c30565b9150509250925092565b60008060408385031215612d2a57600080fd5b6000612d3885828601612c06565b925050602083013567ffffffffffffffff811115612d5557600080fd5b612d6185828601612c30565b9150509250929050565b60008060408385031215612d7e57600080fd5b600083013567ffffffffffffffff811115612d9857600080fd5b612da485828601612c30565b925050602083013567ffffffffffffffff811115612dc157600080fd5b612dcd85828601612c30565b9150509250929050565b60008060008060808587031215612ded57600080fd5b600085013567ffffffffffffffff811115612e0757600080fd5b612e1387828801612c30565b9450506020612e2487828801612c5a565b9350506040612e3587828801612c5a565b9250506060612e4687828801612c5a565b91505092959194509250565b600060208284031215612e6457600080fd5b6000612e7284828501612c5a565b91505092915050565b612e84816137c7565b82525050565b612e93816137c7565b82525050565b612ea2816137b5565b82525050565b612eb1816137d9565b82525050565b612ec0816137d9565b82525050565b6000612ed18261377d565b612edb8185613788565b9350612eeb81856020860161381e565b612ef48161398a565b840191505092915050565b6000612f0a8261377d565b612f148185613799565b9350612f2481856020860161381e565b612f2d8161398a565b840191505092915050565b6000612f438261377d565b612f4d81856137aa565b9350612f5d81856020860161381e565b80840191505092915050565b60008154612f7681613851565b612f808186613799565b94506001821660008114612f9b5760018114612fad57612fe0565b60ff1983168652602086019350612fe0565b612fb685613768565b60005b83811015612fd857815481890152600182019150602081019050612fb9565b808801955050505b50505092915050565b6000612ff6601083613799565b91506130018261399b565b602082019050919050565b6000613019601883613799565b9150613024826139c4565b602082019050919050565b600061303c601383613799565b9150613047826139ed565b602082019050919050565b600061305f601783613799565b915061306a82613a16565b602082019050919050565b6000613082601583613799565b915061308d82613a3f565b602082019050919050565b60006130a5601283613799565b91506130b082613a68565b602082019050919050565b60006130c8601783613799565b91506130d382613a91565b602082019050919050565b60006130eb602283613799565b91506130f682613aba565b604082019050919050565b600061310e602283613799565b915061311982613b09565b604082019050919050565b6000613131601e83613799565b915061313c82613b58565b602082019050919050565b6000613154601683613799565b915061315f82613b81565b602082019050919050565b6000613177600b83613799565b915061318282613baa565b602082019050919050565b600061319a602483613799565b91506131a582613bd3565b604082019050919050565b600060c0830160008301516131c86000860182612ea8565b5060208301516131db6020860182612e7b565b50604083015184820360408601526131f38282612ec6565b915050606083015161320860608601826132bd565b50608083015161321b60808601826132bd565b5060a083015184820360a08601526132338282612ec6565b9150508091505092915050565b600060a083016000830151848203600086015261325d8282612ec6565b915050602083015184820360208601526132778282612ec6565b915050604083015161328c60408601826132bd565b50606083015161329f6060860182612e7b565b5060808301516132b26080860182612ea8565b508091505092915050565b6132c681613805565b82525050565b6132d581613805565b82525050565b60006132e78284612f38565b915081905092915050565b60006020820190506133076000830184612eb7565b92915050565b600060c0820190506133226000830189612eb7565b61332f6020830188612e8a565b81810360408301526133418187612eff565b905061335060608301866132cc565b61335d60808301856132cc565b81810360a083015261336f8184612eff565b9050979650505050505050565b60006060820190506133916000830186612eb7565b81810360208301526133a38185612eff565b90506133b26040830184612e99565b949350505050565b600060e0820190506133cf600083018a612eb7565b81810360208301526133e18189612eff565b90506133f060408301886132cc565b6133fd60608301876132cc565b61340a60808301866132cc565b61341760a0830185612eb7565b61342460c0830184612eb7565b98975050505050505050565b6000602082019050818103600083015261344a8184612eff565b905092915050565b6000606082019050818103600083015261346c8186612f69565b905061347b60208301856132cc565b61348860408301846132cc565b949350505050565b600060808201905081810360008301526134aa8187612f69565b90506134b960208301866132cc565b6134c660408301856132cc565b6134d360608301846132cc565b95945050505050565b600060208201905081810360008301526134f581612fe9565b9050919050565b600060208201905081810360008301526135158161300c565b9050919050565b600060208201905081810360008301526135358161302f565b9050919050565b6000602082019050818103600083015261355581613052565b9050919050565b6000602082019050818103600083015261357581613075565b9050919050565b6000602082019050818103600083015261359581613098565b9050919050565b600060208201905081810360008301526135b5816130bb565b9050919050565b600060208201905081810360008301526135d5816130de565b9050919050565b600060208201905081810360008301526135f581613101565b9050919050565b6000602082019050818103600083015261361581613124565b9050919050565b6000602082019050818103600083015261363581613147565b9050919050565b600060208201905081810360008301526136558161316a565b9050919050565b600060208201905081810360008301526136758161318d565b9050919050565b6000602082019050818103600083015261369681846131b0565b905092915050565b600060408201905081810360008301526136b881856131b0565b905081810360208301526136cc8184612eff565b90509392505050565b600060208201905081810360008301526136ef8184613240565b905092915050565b600060208201905061370c60008301846132cc565b92915050565b600061371c61372d565b90506137288282613883565b919050565b6000604051905090565b600067ffffffffffffffff8211156137525761375161395b565b5b61375b8261398a565b9050602081019050919050565b60008190508160005260206000209050919050565b600081519050919050565b600082825260208201905092915050565b600082825260208201905092915050565b600081905092915050565b60006137c0826137e5565b9050919050565b60006137d2826137e5565b9050919050565b60008115159050919050565b600073ffffffffffffffffffffffffffffffffffffffff82169050919050565b6000819050919050565b82818337600083830152505050565b60005b8381101561383c578082015181840152602081019050613821565b8381111561384b576000848401525b50505050565b6000600282049050600182168061386957607f821691505b6020821081141561387d5761387c61392c565b5b50919050565b61388c8261398a565b810181811067ffffffffffffffff821117156138ab576138aa61395b565b5b80604052505050565b60006138bf82613805565b91507fffffffffffffffffffffffffffffffffffffffffffffffffffffffffffffffff8214156138f2576138f16138fd565b5b600182019050919050565b7f4e487b7100000000000000000000000000000000000000000000000000000000600052601160045260246000fd5b7f4e487b7100000000000000000000000000000000000000000000000000000000600052602260045260246000fd5b7f4e487b7100000000000000000000000000000000000000000000000000000000600052604160045260246000fd5b6000601f19601f8301169050919050565b7f4e6f20656e6f7567682045746865727300000000000000000000000000000000600082015250565b7f4163636f756e742063616e206e6f7420626520656d7074790000000000000000600082015250565b7f506c6561736520656e7465722061206e616d6500000000000000000000000000600082015250565b7f506c6561736520656e74657220612070617373776f7264000000000000000000600082015250565b7f436172206973206e6f7420617661696c61626c652e0000000000000000000000600082015250565b7f496e636f72726563742050617373776f72640000000000000000000000000000600082015250565b7f506c65617365207374617274206e65772072656e74616c000000000000000000600082015250565b7f506c6561736520656e746572206e616d6520616e6420636172206c6f6361746960008201527f6f6e000000000000000000000000000000000000000000000000000000000000602082015250565b7f506c6561736520656e746572206e616d652c2061676520616e64206c6963656e60008201527f7365000000000000000000000000000000000000000000000000000000000000602082015250565b7f43616e6e6f742063616e63656c20636f6e6669726d65642072656e74616c0000600082015250565b7f4163636f756e7420616c72656164792065786973747300000000000000000000600082015250565b7f496e76616c696420616765000000000000000000000000000000000000000000600082015250565b7f506c6561736520636f6e6669726d2f63616e63656c206578697374696e67206f60008201527f7264657200000000000000000000000000000000000000000000000000000000602082015250565b613c2b816137b5565b8114613c3657600080fd5b50565b613c42816137c7565b8114613c4d57600080fd5b50565b613c5981613805565b8114613c6457600080fd5b5056fea26469706673582212206e338ecd94a522328a940d52a9f0a613bfcc05dc41d3ccaa44760408655f3c6d64736f6c63430008040033",
  "linkReferences": {},
  "deployedLinkReferences": {}
}